{
  "_format": "hh3-artifact-1",
  "contractName": "Charity",
  "sourceName": "contracts/Charity.sol",
  "abi": [
    {
      "inputs": [],
      "stateMutability": "nonpayable",
      "type": "constructor"
    },
    {
      "anonymous": false,
      "inputs": [
        {
          "indexed": true,
          "internalType": "uint256",
          "name": "id",
          "type": "uint256"
        },
        {
          "indexed": true,
          "internalType": "address",
          "name": "creator",
          "type": "address"
        }
      ],
      "name": "CampaignCreated",
      "type": "event"
    },
    {
      "anonymous": false,
      "inputs": [
        {
          "indexed": true,
          "internalType": "uint256",
          "name": "campaignId",
          "type": "uint256"
        },
        {
          "indexed": true,
          "internalType": "address",
          "name": "commenter",
          "type": "address"
        },
        {
          "indexed": false,
          "internalType": "string",
          "name": "text",
          "type": "string"
        }
      ],
      "name": "CommentAdded",
      "type": "event"
    },
    {
      "anonymous": false,
      "inputs": [
        {
          "indexed": true,
          "internalType": "uint256",
          "name": "campaignId",
          "type": "uint256"
        },
        {
          "indexed": true,
          "internalType": "address",
          "name": "recipient",
          "type": "address"
        },
        {
          "indexed": false,
          "internalType": "uint256",
          "name": "amount",
          "type": "uint256"
        }
      ],
      "name": "Disbursed",
      "type": "event"
    },
    {
      "anonymous": false,
      "inputs": [
        {
          "indexed": true,
          "internalType": "uint256",
          "name": "campaignId",
          "type": "uint256"
        },
        {
          "indexed": true,
          "internalType": "address",
          "name": "donor",
          "type": "address"
        },
        {
          "indexed": false,
          "internalType": "uint256",
          "name": "amount",
          "type": "uint256"
        }
      ],
      "name": "DonationReceived",
      "type": "event"
    },
    {
      "anonymous": false,
      "inputs": [
        {
          "indexed": true,
          "internalType": "uint256",
          "name": "campaignId",
          "type": "uint256"
        },
        {
          "indexed": true,
          "internalType": "address",
          "name": "liker",
          "type": "address"
        }
      ],
      "name": "Liked",
      "type": "event"
    },
    {
      "stateMutability": "payable",
      "type": "fallback"
    },
    {
      "inputs": [
        {
          "internalType": "uint256",
          "name": "campaignId",
          "type": "uint256"
        },
        {
          "internalType": "string",
          "name": "text",
          "type": "string"
        },
        {
          "internalType": "bool",
          "name": "anon",
          "type": "bool"
        }
      ],
      "name": "addComment",
      "outputs": [],
      "stateMutability": "nonpayable",
      "type": "function"
    },
    {
      "inputs": [
        {
          "internalType": "uint256",
          "name": "",
          "type": "uint256"
        }
      ],
      "name": "campaigns",
      "outputs": [
        {
          "internalType": "uint256",
          "name": "id",
          "type": "uint256"
        },
        {
          "internalType": "address",
          "name": "creator",
          "type": "address"
        },
        {
          "internalType": "string",
          "name": "title",
          "type": "string"
        },
        {
          "internalType": "string",
          "name": "description",
          "type": "string"
        },
        {
          "internalType": "string",
          "name": "media",
          "type": "string"
        },
        {
          "internalType": "string",
          "name": "location",
          "type": "string"
        },
        {
          "internalType": "uint256",
          "name": "targetAmount",
          "type": "uint256"
        },
        {
          "internalType": "address payable",
          "name": "campaignWallet",
          "type": "address"
        },
        {
          "internalType": "uint256",
          "name": "collected",
          "type": "uint256"
        },
        {
          "internalType": "uint256",
          "name": "createdAt",
          "type": "uint256"
        },
        {
          "internalType": "bool",
          "name": "active",
          "type": "bool"
        }
      ],
      "stateMutability": "view",
      "type": "function"
    },
    {
      "inputs": [
        {
          "internalType": "string",
          "name": "title",
          "type": "string"
        },
        {
          "internalType": "string",
          "name": "description",
          "type": "string"
        },
        {
          "internalType": "string",
          "name": "media",
          "type": "string"
        },
        {
          "internalType": "string",
          "name": "location",
          "type": "string"
        },
        {
          "internalType": "uint256",
          "name": "targetAmount",
          "type": "uint256"
        },
        {
          "internalType": "address payable",
          "name": "campaignWallet",
          "type": "address"
        }
      ],
      "name": "createCampaign",
      "outputs": [
        {
          "internalType": "uint256",
          "name": "",
          "type": "uint256"
        }
      ],
      "stateMutability": "nonpayable",
      "type": "function"
    },
    {
      "inputs": [
        {
          "internalType": "uint256",
          "name": "campaignId",
          "type": "uint256"
        },
        {
          "internalType": "address payable",
          "name": "recipient",
          "type": "address"
        },
        {
          "internalType": "uint256",
          "name": "amount",
          "type": "uint256"
        }
      ],
      "name": "disburseFromContract",
      "outputs": [],
      "stateMutability": "nonpayable",
      "type": "function"
    },
    {
      "inputs": [
        {
          "internalType": "uint256",
          "name": "campaignId",
          "type": "uint256"
        }
      ],
      "name": "donate",
      "outputs": [],
      "stateMutability": "payable",
      "type": "function"
    },
    {
      "inputs": [
        {
          "internalType": "uint256",
          "name": "campaignId",
          "type": "uint256"
        },
        {
          "internalType": "uint256",
          "name": "index",
          "type": "uint256"
        }
      ],
      "name": "getComment",
      "outputs": [
        {
          "components": [
            {
              "internalType": "address",
              "name": "commenter",
              "type": "address"
            },
            {
              "internalType": "string",
              "name": "text",
              "type": "string"
            },
            {
              "internalType": "uint256",
              "name": "timestamp",
              "type": "uint256"
            },
            {
              "internalType": "bool",
              "name": "isAnonymous",
              "type": "bool"
            }
          ],
          "internalType": "struct Charity.Comment",
          "name": "",
          "type": "tuple"
        }
      ],
      "stateMutability": "view",
      "type": "function"
    },
    {
      "inputs": [
        {
          "internalType": "uint256",
          "name": "campaignId",
          "type": "uint256"
        }
      ],
      "name": "getCommentsCount",
      "outputs": [
        {
          "internalType": "uint256",
          "name": "",
          "type": "uint256"
        }
      ],
      "stateMutability": "view",
      "type": "function"
    },
    {
      "inputs": [
        {
          "internalType": "uint256",
          "name": "campaignId",
          "type": "uint256"
        },
        {
          "internalType": "uint256",
          "name": "index",
          "type": "uint256"
        }
      ],
      "name": "getDisbursement",
      "outputs": [
        {
          "components": [
            {
              "internalType": "address",
              "name": "recipient",
              "type": "address"
            },
            {
              "internalType": "uint256",
              "name": "amount",
              "type": "uint256"
            },
            {
              "internalType": "uint256",
              "name": "timestamp",
              "type": "uint256"
            },
            {
              "internalType": "uint256",
              "name": "blockNumber",
              "type": "uint256"
            }
          ],
          "internalType": "struct Charity.Disbursement",
          "name": "",
          "type": "tuple"
        }
      ],
      "stateMutability": "view",
      "type": "function"
    },
    {
      "inputs": [
        {
          "internalType": "uint256",
          "name": "campaignId",
          "type": "uint256"
        }
      ],
      "name": "getDisbursementsCount",
      "outputs": [
        {
          "internalType": "uint256",
          "name": "",
          "type": "uint256"
        }
      ],
      "stateMutability": "view",
      "type": "function"
    },
    {
      "inputs": [
        {
          "internalType": "uint256",
          "name": "campaignId",
          "type": "uint256"
        },
        {
          "internalType": "uint256",
          "name": "index",
          "type": "uint256"
        }
      ],
      "name": "getDonation",
      "outputs": [
        {
          "components": [
            {
              "internalType": "address",
              "name": "donor",
              "type": "address"
            },
            {
              "internalType": "uint256",
              "name": "amount",
              "type": "uint256"
            },
            {
              "internalType": "uint256",
              "name": "timestamp",
              "type": "uint256"
            },
            {
              "internalType": "uint256",
              "name": "blockNumber",
              "type": "uint256"
            }
          ],
          "internalType": "struct Charity.Donation",
          "name": "",
          "type": "tuple"
        }
      ],
      "stateMutability": "view",
      "type": "function"
    },
    {
      "inputs": [
        {
          "internalType": "uint256",
          "name": "campaignId",
          "type": "uint256"
        }
      ],
      "name": "getDonationsCount",
      "outputs": [
        {
          "internalType": "uint256",
          "name": "",
          "type": "uint256"
        }
      ],
      "stateMutability": "view",
      "type": "function"
    },
    {
      "inputs": [
        {
          "internalType": "uint256",
          "name": "campaignId",
          "type": "uint256"
        }
      ],
      "name": "getSupporters",
      "outputs": [
        {
          "internalType": "address[]",
          "name": "",
          "type": "address[]"
        }
      ],
      "stateMutability": "view",
      "type": "function"
    },
    {
      "inputs": [
        {
          "internalType": "uint256",
          "name": "campaignId",
          "type": "uint256"
        }
      ],
      "name": "getSupportersCount",
      "outputs": [
        {
          "internalType": "uint256",
          "name": "",
          "type": "uint256"
        }
      ],
      "stateMutability": "view",
      "type": "function"
    },
    {
      "inputs": [
        {
          "internalType": "uint256",
          "name": "campaignId",
          "type": "uint256"
        }
      ],
      "name": "getTotalFunds",
      "outputs": [
        {
          "internalType": "uint256",
          "name": "",
          "type": "uint256"
        }
      ],
      "stateMutability": "view",
      "type": "function"
    },
    {
      "inputs": [
        {
          "internalType": "address",
          "name": "",
          "type": "address"
        }
      ],
      "name": "isAdmin",
      "outputs": [
        {
          "internalType": "bool",
          "name": "",
          "type": "bool"
        }
      ],
      "stateMutability": "view",
      "type": "function"
    },
    {
      "inputs": [
        {
          "internalType": "uint256",
          "name": "campaignId",
          "type": "uint256"
        }
      ],
      "name": "like",
      "outputs": [],
      "stateMutability": "nonpayable",
      "type": "function"
    },
    {
      "inputs": [
        {
          "internalType": "uint256",
          "name": "",
          "type": "uint256"
        },
        {
          "internalType": "address",
          "name": "",
          "type": "address"
        }
      ],
      "name": "liked",
      "outputs": [
        {
          "internalType": "bool",
          "name": "",
          "type": "bool"
        }
      ],
      "stateMutability": "view",
      "type": "function"
    },
    {
      "inputs": [
        {
          "internalType": "uint256",
          "name": "",
          "type": "uint256"
        }
      ],
      "name": "likesCount",
      "outputs": [
        {
          "internalType": "uint256",
          "name": "",
          "type": "uint256"
        }
      ],
      "stateMutability": "view",
      "type": "function"
    },
    {
      "inputs": [],
      "name": "nextCampaignId",
      "outputs": [
        {
          "internalType": "uint256",
          "name": "",
          "type": "uint256"
        }
      ],
      "stateMutability": "view",
      "type": "function"
    },
    {
      "inputs": [],
      "name": "owner",
      "outputs": [
        {
          "internalType": "address",
          "name": "",
          "type": "address"
        }
      ],
      "stateMutability": "view",
      "type": "function"
    },
    {
      "inputs": [
        {
          "internalType": "address",
          "name": "account",
          "type": "address"
        },
        {
          "internalType": "bool",
          "name": "allowed",
          "type": "bool"
        }
      ],
      "name": "setAdmin",
      "outputs": [],
      "stateMutability": "nonpayable",
      "type": "function"
    },
    {
      "inputs": [
        {
          "internalType": "uint256",
          "name": "campaignId",
          "type": "uint256"
        },
        {
          "internalType": "bool",
          "name": "active",
          "type": "bool"
        }
      ],
      "name": "setCampaignActive",
      "outputs": [],
      "stateMutability": "nonpayable",
      "type": "function"
    },
    {
      "inputs": [
        {
          "internalType": "uint256",
          "name": "campaignId",
          "type": "uint256"
        }
      ],
      "name": "unlike",
      "outputs": [],
      "stateMutability": "nonpayable",
      "type": "function"
    },
    {
      "stateMutability": "payable",
      "type": "receive"
    }
  ],
  "bytecode": "0x6080604052348015600e575f5ffd5b505f80546001600160a01b0319163390811782558152600a60205260409020805460ff191660019081179091558055611ba18061004a5f395ff3fe608060405260043610610136575f3560e01c806376ff7bf4116100af578063b16853061161006b578063b16853061461040e578063b1b81dd91461042d578063cc84ad021461044c578063d1eb06f21461047a578063e82935da146104a5578063f14faf6f146104c457005b806376ff7bf41461033a5780637903a756146103665780638da5cb5b1461037b578063a43a99b8146103b1578063a8dcb615146103d0578063ad11728b146103ef57005b806348892753116100fe578063488927531461024e5780634b0bddd21461027a5780634c9b78da146102995780634f63829c146102c4578063683d6e58146102f057806374d21ae01461031b57005b806302c427871461013857806306ec003214610186578063141961bc146101bf57806324d7806c146101f55780633c60b55914610223575b005b348015610143575f5ffd5b506101716101523660046114e1565b600860209081525f928352604080842090915290825290205460ff1681565b60405190151581526020015b60405180910390f35b348015610191575f5ffd5b506101b16101a036600461150f565b5f9081526004602052604090205490565b60405190815260200161017d565b3480156101ca575f5ffd5b506101de6101d936600461150f565b6104d7565b60405161017d9b9a99989796959493929190611554565b348015610200575f5ffd5b5061017161020f3660046115f5565b600a6020525f908152604090205460ff1681565b34801561022e575f5ffd5b506101b161023d36600461150f565b60096020525f908152604090205481565b348015610259575f5ffd5b5061026d610268366004611617565b61075a565b60405161017d9190611637565b348015610285575f5ffd5b5061013661029436600461169a565b61088e565b3480156102a4575f5ffd5b506101b16102b336600461150f565b5f9081526005602052604090205490565b3480156102cf575f5ffd5b506102e36102de36600461150f565b610903565b60405161017d91906116cd565b3480156102fb575f5ffd5b506101b161030a36600461150f565b5f9081526003602052604090205490565b348015610326575f5ffd5b5061013661033536600461150f565b61096c565b348015610345575f5ffd5b50610359610354366004611617565b6109fe565b60405161017d9190611718565b348015610371575f5ffd5b506101b160015481565b348015610386575f5ffd5b505f54610399906001600160a01b031681565b6040516001600160a01b03909116815260200161017d565b3480156103bc575f5ffd5b506103596103cb366004611617565b610a9e565b3480156103db575f5ffd5b506101366103ea366004611757565b610aed565b3480156103fa575f5ffd5b5061013661040936600461178c565b610d2d565b348015610419575f5ffd5b506101b16104283660046117f2565b610d7d565b348015610438575f5ffd5b506101366104473660046118d8565b611015565b348015610457575f5ffd5b506101b161046636600461150f565b5f9081526002602052604090206008015490565b348015610485575f5ffd5b506101b161049436600461150f565b5f9081526006602052604090205490565b3480156104b0575f5ffd5b506101366104bf36600461150f565b61116c565b6101366104d236600461150f565b611226565b600260208190525f918252604090912080546001820154928201805491936001600160a01b0316929161050990611932565b80601f016020809104026020016040519081016040528092919081815260200182805461053590611932565b80156105805780601f1061055757610100808354040283529160200191610580565b820191905f5260205f20905b81548152906001019060200180831161056357829003601f168201915b50505050509080600301805461059590611932565b80601f01602080910402602001604051908101604052809291908181526020018280546105c190611932565b801561060c5780601f106105e35761010080835404028352916020019161060c565b820191905f5260205f20905b8154815290600101906020018083116105ef57829003601f168201915b50505050509080600401805461062190611932565b80601f016020809104026020016040519081016040528092919081815260200182805461064d90611932565b80156106985780601f1061066f57610100808354040283529160200191610698565b820191905f5260205f20905b81548152906001019060200180831161067b57829003601f168201915b5050505050908060050180546106ad90611932565b80601f01602080910402602001604051908101604052809291908181526020018280546106d990611932565b80156107245780601f106106fb57610100808354040283529160200191610724565b820191905f5260205f20905b81548152906001019060200180831161070757829003601f168201915b5050506006840154600785015460088601546009870154600a90970154959692956001600160a01b039092169450925060ff168b565b61078d60405180608001604052805f6001600160a01b03168152602001606081526020015f81526020015f151581525090565b5f8381526005602052604090208054839081106107ac576107ac61196a565b5f918252602091829020604080516080810190915260049092020180546001600160a01b0316825260018101805492939192918401916107eb90611932565b80601f016020809104026020016040519081016040528092919081815260200182805461081790611932565b80156108625780601f1061083957610100808354040283529160200191610862565b820191905f5260205f20905b81548152906001019060200180831161084557829003601f168201915b50505091835250506002820154602082015260039091015460ff16151560409091015290505b92915050565b5f546001600160a01b031633146108d95760405162461bcd60e51b815260206004820152600a60248201526937b7363c9037bbb732b960b11b60448201526064015b60405180910390fd5b6001600160a01b03919091165f908152600a60205260409020805460ff1916911515919091179055565b5f8181526006602090815260409182902080548351818402810184019094528084526060939283018282801561096057602002820191905f5260205f20905b81546001600160a01b03168152600190910190602001808311610942575b50505050509050919050565b5f81815260086020908152604080832033845290915290205460ff166109c05760405162461bcd60e51b81526020600482015260096024820152681b9bdd081b1a5ad95960ba1b60448201526064016108d0565b5f8181526008602090815260408083203384528252808320805460ff19169055838352600990915281208054916109f683611992565b919050555050565b610a2e60405180608001604052805f6001600160a01b031681526020015f81526020015f81526020015f81525090565b5f838152600360205260409020805483908110610a4d57610a4d61196a565b5f91825260209182902060408051608081018252600490930290910180546001600160a01b031683526001810154938301939093526002830154908201526003909101546060820152905092915050565b610ace60405180608001604052805f6001600160a01b031681526020015f81526020015f81526020015f81525090565b5f838152600460205260409020805483908110610a4d57610a4d61196a565b335f908152600a602052604090205460ff16610b1b5760405162461bcd60e51b81526004016108d0906119a7565b5f8381526002602052604081208054909103610b495760405162461bcd60e51b81526004016108d0906119cb565b5f8211610b8d5760405162461bcd60e51b81526020600482015260126024820152710616d6f756e74206d757374206265203e20360741b60448201526064016108d0565b4782811015610bde5760405162461bcd60e51b815260206004820152601d60248201527f696e73756666696369656e7420636f6e74726163742062616c616e636500000060448201526064016108d0565b5f846001600160a01b0316846040515f6040518083038185875af1925050503d805f8114610c27576040519150601f19603f3d011682016040523d82523d5f602084013e610c2c565b606091505b5050905080610c6f5760405162461bcd60e51b815260206004820152600f60248201526e1d1c985b9cd9995c8819985a5b1959608a1b60448201526064016108d0565b5f86815260046020818152604080842081516080810183526001600160a01b038b81168083528286018c8152428487019081524360608601908152865460018082018955978c529a89902095519a90990290940180546001600160a01b031916999093169890981782559651928101929092555160028201559251600390930192909255905186815288917f8c4905f8a17a430223b23d54ea01f7ebb8c6cc6417d7eae96dfa0010949f0fa0910160405180910390a3505050505050565b335f908152600a602052604090205460ff16610d5b5760405162461bcd60e51b81526004016108d0906119a7565b5f91825260026020526040909120600a01805460ff1916911515919091179055565b335f908152600a602052604081205460ff16610dab5760405162461bcd60e51b81526004016108d0906119a7565b600180545f9182610dbb836119f7565b919050559050604051806101600160405280828152602001336001600160a01b031681526020018d8d8080601f0160208091040260200160405190810160405280939291908181526020018383808284375f92019190915250505090825250604080516020601f8e018190048102820181019092528c815291810191908d908d90819084018382808284375f92019190915250505090825250604080516020601f8c018190048102820181019092528a815291810191908b908b90819084018382808284375f92019190915250505090825250604080516020601f8a01819004810282018101909252888152918101919089908990819084018382808284375f92018290525093855250505060208083018890526001600160a01b0387811660408086019190915260608501849052426080860152600160a0909501859052868452600280845293819020865181559286015194830180546001600160a01b031916959092169490941790559183015190820190610f399082611a6f565b5060608201516003820190610f4e9082611a6f565b5060808201516004820190610f639082611a6f565b5060a08201516005820190610f789082611a6f565b5060c0820151600682015560e08201516007820180546001600160a01b0319166001600160a01b039092169190911790556101008201516008820155610120820151600982015561014090910151600a909101805460ff1916911515919091179055604051339082907f633109eec20320eded000fc1e2634211aa7e92ba3f5b15faf6dcdafca05094e4905f90a39b9a5050505050505050505050565b5f8481526002602052604081205490036110415760405162461bcd60e51b81526004016108d0906119cb565b60055f8581526020019081526020015f206040518060800160405280336001600160a01b0316815260200185858080601f0160208091040260200160405190810160405280939291908181526020018383808284375f9201829052509385525050426020808501919091528615156040909401939093525083546001808201865594825290829020835160049092020180546001600160a01b0319166001600160a01b039092169190911781559082015191929091908201906111049082611a6f565b5060408281015160028301556060909201516003909101805460ff191691151591909117905551339085907fcc2d7dd2085ae6644799a42c0174adf9afc10a43f26db5eac3ddd1f96d1d64be9061115e9087908790611b2a565b60405180910390a350505050565b5f8181526002602052604081205490036111985760405162461bcd60e51b81526004016108d0906119cb565b5f81815260086020908152604080832033845290915290205460ff16611223575f8181526008602090815260408083203384528252808320805460ff19166001179055838352600990915281208054916111f1836119f7565b9091555050604051339082907f6790e8ded18c25977540ba89bbcefd83da7fbe624085856758cf343178c4d612905f90a35b50565b5f341161126c5760405162461bcd60e51b81526020600482015260146024820152730646f6e6174696f6e206d757374206265203e20360641b60448201526064016108d0565b5f818152600260205260408120805490910361129a5760405162461bcd60e51b81526004016108d0906119cb565b600a81015460ff166112e45760405162461bcd60e51b815260206004820152601360248201527263616d706169676e206e6f742061637469766560681b60448201526064016108d0565b34816008015f8282546112f79190611b58565b90915550505f82815260036020818152604080842081516080810183523380825234828601908152428386019081524360608501908152855460018082018855968b52888b209551600490910290950180546001600160a01b0319166001600160a01b039096169590951785559151948401949094559251600283015591519401939093558584526007825280842092845291905290205460ff166113ea575f82815260076020908152604080832033808552908352818420805460ff19166001908117909155868552600684529184208054928301815584529190922090910180546001600160a01b03191690911790555b60078101546001600160a01b0316156114925760078101546040515f916001600160a01b03169034908381818185875af1925050503d805f8114611449576040519150601f19603f3d011682016040523d82523d5f602084013e61144e565b606091505b50509050806114905760405162461bcd60e51b815260206004820152600e60248201526d199bdc9dd85c990819985a5b195960921b60448201526064016108d0565b505b604051348152339083907f0b5b4c52969ff7329ecf7ee536409fda87812b15a8622bc6e8cdeab3aee14a269060200160405180910390a35050565b6001600160a01b0381168114611223575f5ffd5b5f5f604083850312156114f2575f5ffd5b823591506020830135611504816114cd565b809150509250929050565b5f6020828403121561151f575f5ffd5b5035919050565b5f81518084528060208401602086015e5f602082860101526020601f19601f83011685010191505092915050565b8b81526001600160a01b038b166020820152610160604082018190525f9061157e9083018c611526565b8281036060840152611590818c611526565b905082810360808401526115a4818b611526565b905082810360a08401526115b8818a611526565b60c084019890985250506001600160a01b039490941660e08501526101008401929092526101208301521515610140909101529695505050505050565b5f60208284031215611605575f5ffd5b8135611610816114cd565b9392505050565b5f5f60408385031215611628575f5ffd5b50508035926020909101359150565b602080825282516001600160a01b031682820152820151608060408301525f9061166460a0840182611526565b9050604084015160608401526060840151151560808401528091505092915050565b80358015158114611695575f5ffd5b919050565b5f5f604083850312156116ab575f5ffd5b82356116b6816114cd565b91506116c460208401611686565b90509250929050565b602080825282518282018190525f918401906040840190835b8181101561170d5783516001600160a01b03168352602093840193909201916001016116e6565b509095945050505050565b81516001600160a01b0316815260208083015190820152604080830151908201526060808301519082015260808101610888565b8035611695816114cd565b5f5f5f60608486031215611769575f5ffd5b83359250602084013561177b816114cd565b929592945050506040919091013590565b5f5f6040838503121561179d575f5ffd5b823591506116c460208401611686565b5f5f83601f8401126117bd575f5ffd5b50813567ffffffffffffffff8111156117d4575f5ffd5b6020830191508360208285010111156117eb575f5ffd5b9250929050565b5f5f5f5f5f5f5f5f5f5f60c08b8d03121561180b575f5ffd5b8a3567ffffffffffffffff811115611821575f5ffd5b61182d8d828e016117ad565b909b5099505060208b013567ffffffffffffffff81111561184c575f5ffd5b6118588d828e016117ad565b90995097505060408b013567ffffffffffffffff811115611877575f5ffd5b6118838d828e016117ad565b90975095505060608b013567ffffffffffffffff8111156118a2575f5ffd5b6118ae8d828e016117ad565b90955093505060808b013591506118c760a08c0161174c565b90509295989b9194979a5092959850565b5f5f5f5f606085870312156118eb575f5ffd5b84359350602085013567ffffffffffffffff811115611908575f5ffd5b611914878288016117ad565b9094509250611927905060408601611686565b905092959194509250565b600181811c9082168061194657607f821691505b60208210810361196457634e487b7160e01b5f52602260045260245ffd5b50919050565b634e487b7160e01b5f52603260045260245ffd5b634e487b7160e01b5f52601160045260245ffd5b5f816119a0576119a061197e565b505f190190565b6020808252600a908201526937b7363c9030b236b4b760b11b604082015260600190565b60208082526012908201527118d85b5c185a59db881b9bdd08199bdd5b9960721b604082015260600190565b5f60018201611a0857611a0861197e565b5060010190565b634e487b7160e01b5f52604160045260245ffd5b601f821115611a6a57805f5260205f20601f840160051c81016020851015611a485750805b601f840160051c820191505b81811015611a67575f8155600101611a54565b50505b505050565b815167ffffffffffffffff811115611a8957611a89611a0f565b611a9d81611a978454611932565b84611a23565b6020601f821160018114611acf575f8315611ab85750848201515b5f19600385901b1c1916600184901b178455611a67565b5f84815260208120601f198516915b82811015611afe5787850151825560209485019460019092019101611ade565b5084821015611b1b57868401515f19600387901b60f8161c191681555b50505050600190811b01905550565b60208152816020820152818360408301375f818301604090810191909152601f909201601f19160101919050565b808201808211156108885761088861197e56fea26469706673582212202db18641847411154f98a9613a0a45aa7a134a1311d4524e27ce895f5b47704d64736f6c634300081c0033",
  "linkReferences": {},
  "deployedLinkReferences": {},
  "immutableReferences": {},
  "inputSourceName": "project/contracts/Charity.sol",
  "buildInfoId": "solc-0_8_28-b00f7ae6fcfa8a04df793d65e524d59eb0156032"
}