{
  "_format": "hh3-artifact-1",
  "contractName": "Charity",
  "sourceName": "contracts/Charity.sol",
  "abi": [
    {
      "inputs": [],
      "stateMutability": "nonpayable",
      "type": "constructor"
    },
    {
      "anonymous": false,
      "inputs": [
        {
          "indexed": true,
          "internalType": "uint256",
          "name": "id",
          "type": "uint256"
        },
        {
          "indexed": true,
          "internalType": "address",
          "name": "closer",
          "type": "address"
        },
        {
          "indexed": false,
          "internalType": "uint256",
          "name": "timestamp",
          "type": "uint256"
        }
      ],
      "name": "CampaignClosed",
      "type": "event"
    },
    {
      "anonymous": false,
      "inputs": [
        {
          "indexed": true,
          "internalType": "uint256",
          "name": "id",
          "type": "uint256"
        },
        {
          "indexed": true,
          "internalType": "address",
          "name": "creator",
          "type": "address"
        }
      ],
      "name": "CampaignCreated",
      "type": "event"
    },
    {
      "anonymous": false,
      "inputs": [
        {
          "indexed": true,
          "internalType": "uint256",
          "name": "id",
          "type": "uint256"
        },
        {
          "indexed": true,
          "internalType": "address",
          "name": "updater",
          "type": "address"
        }
      ],
      "name": "CampaignUpdated",
      "type": "event"
    },
    {
      "anonymous": false,
      "inputs": [
        {
          "indexed": true,
          "internalType": "uint256",
          "name": "campaignId",
          "type": "uint256"
        },
        {
          "indexed": true,
          "internalType": "address",
          "name": "commenter",
          "type": "address"
        },
        {
          "indexed": false,
          "internalType": "string",
          "name": "text",
          "type": "string"
        }
      ],
      "name": "CommentAdded",
      "type": "event"
    },
    {
      "anonymous": false,
      "inputs": [
        {
          "indexed": true,
          "internalType": "uint256",
          "name": "campaignId",
          "type": "uint256"
        },
        {
          "indexed": true,
          "internalType": "address",
          "name": "recipient",
          "type": "address"
        },
        {
          "indexed": false,
          "internalType": "uint256",
          "name": "amount",
          "type": "uint256"
        },
        {
          "indexed": false,
          "internalType": "bytes32",
          "name": "txHash",
          "type": "bytes32"
        }
      ],
      "name": "Disbursed",
      "type": "event"
    },
    {
      "anonymous": false,
      "inputs": [
        {
          "indexed": true,
          "internalType": "uint256",
          "name": "campaignId",
          "type": "uint256"
        },
        {
          "indexed": true,
          "internalType": "address",
          "name": "donor",
          "type": "address"
        },
        {
          "indexed": false,
          "internalType": "uint256",
          "name": "amount",
          "type": "uint256"
        },
        {
          "indexed": false,
          "internalType": "bytes32",
          "name": "txHash",
          "type": "bytes32"
        }
      ],
      "name": "DonationReceived",
      "type": "event"
    },
    {
      "anonymous": false,
      "inputs": [
        {
          "indexed": true,
          "internalType": "uint256",
          "name": "campaignId",
          "type": "uint256"
        },
        {
          "indexed": true,
          "internalType": "address",
          "name": "liker",
          "type": "address"
        }
      ],
      "name": "Liked",
      "type": "event"
    },
    {
      "anonymous": false,
      "inputs": [
        {
          "indexed": true,
          "internalType": "uint256",
          "name": "campaignId",
          "type": "uint256"
        },
        {
          "indexed": true,
          "internalType": "address",
          "name": "liker",
          "type": "address"
        }
      ],
      "name": "Unliked",
      "type": "event"
    },
    {
      "stateMutability": "payable",
      "type": "fallback"
    },
    {
      "inputs": [
        {
          "internalType": "uint256",
          "name": "campaignId",
          "type": "uint256"
        },
        {
          "internalType": "string",
          "name": "text",
          "type": "string"
        },
        {
          "internalType": "bool",
          "name": "anon",
          "type": "bool"
        }
      ],
      "name": "addComment",
      "outputs": [],
      "stateMutability": "nonpayable",
      "type": "function"
    },
    {
      "inputs": [
        {
          "internalType": "uint256",
          "name": "",
          "type": "uint256"
        }
      ],
      "name": "campaigns",
      "outputs": [
        {
          "internalType": "uint256",
          "name": "id",
          "type": "uint256"
        },
        {
          "internalType": "address",
          "name": "creator",
          "type": "address"
        },
        {
          "internalType": "string",
          "name": "title",
          "type": "string"
        },
        {
          "internalType": "string",
          "name": "description",
          "type": "string"
        },
        {
          "internalType": "string",
          "name": "media",
          "type": "string"
        },
        {
          "internalType": "string",
          "name": "location",
          "type": "string"
        },
        {
          "internalType": "uint256",
          "name": "targetAmount",
          "type": "uint256"
        },
        {
          "internalType": "address payable",
          "name": "campaignWallet",
          "type": "address"
        },
        {
          "internalType": "uint256",
          "name": "collected",
          "type": "uint256"
        },
        {
          "internalType": "uint256",
          "name": "totalDisbursed",
          "type": "uint256"
        },
        {
          "internalType": "uint256",
          "name": "createdAt",
          "type": "uint256"
        },
        {
          "internalType": "uint256",
          "name": "endDate",
          "type": "uint256"
        },
        {
          "internalType": "uint256",
          "name": "updatedAt",
          "type": "uint256"
        },
        {
          "internalType": "string",
          "name": "beneficiary",
          "type": "string"
        },
        {
          "internalType": "bool",
          "name": "active",
          "type": "bool"
        }
      ],
      "stateMutability": "view",
      "type": "function"
    },
    {
      "inputs": [
        {
          "internalType": "uint256",
          "name": "campaignId",
          "type": "uint256"
        }
      ],
      "name": "closeCampaign",
      "outputs": [],
      "stateMutability": "nonpayable",
      "type": "function"
    },
    {
      "inputs": [
        {
          "internalType": "string",
          "name": "title",
          "type": "string"
        },
        {
          "internalType": "string",
          "name": "description",
          "type": "string"
        },
        {
          "internalType": "string",
          "name": "media",
          "type": "string"
        },
        {
          "internalType": "string",
          "name": "location",
          "type": "string"
        },
        {
          "internalType": "uint256",
          "name": "targetAmount",
          "type": "uint256"
        },
        {
          "internalType": "address payable",
          "name": "campaignWallet",
          "type": "address"
        },
        {
          "internalType": "uint256",
          "name": "endDate",
          "type": "uint256"
        },
        {
          "internalType": "string",
          "name": "beneficiary",
          "type": "string"
        }
      ],
      "name": "createCampaign",
      "outputs": [
        {
          "internalType": "uint256",
          "name": "",
          "type": "uint256"
        }
      ],
      "stateMutability": "nonpayable",
      "type": "function"
    },
    {
      "inputs": [
        {
          "internalType": "uint256",
          "name": "campaignId",
          "type": "uint256"
        },
        {
          "internalType": "address payable",
          "name": "recipient",
          "type": "address"
        },
        {
          "internalType": "uint256",
          "name": "amount",
          "type": "uint256"
        },
        {
          "internalType": "string",
          "name": "proofImage",
          "type": "string"
        },
        {
          "internalType": "string",
          "name": "note",
          "type": "string"
        }
      ],
      "name": "disburseFromContract",
      "outputs": [],
      "stateMutability": "nonpayable",
      "type": "function"
    },
    {
      "inputs": [
        {
          "internalType": "uint256",
          "name": "campaignId",
          "type": "uint256"
        }
      ],
      "name": "donate",
      "outputs": [],
      "stateMutability": "payable",
      "type": "function"
    },
    {
      "inputs": [
        {
          "internalType": "uint256",
          "name": "id",
          "type": "uint256"
        }
      ],
      "name": "getCampaignDetails",
      "outputs": [
        {
          "internalType": "uint256",
          "name": "_id",
          "type": "uint256"
        },
        {
          "internalType": "string",
          "name": "title",
          "type": "string"
        },
        {
          "internalType": "uint256",
          "name": "targetAmount",
          "type": "uint256"
        },
        {
          "internalType": "uint256",
          "name": "collected",
          "type": "uint256"
        },
        {
          "internalType": "uint256",
          "name": "totalDisbursed",
          "type": "uint256"
        },
        {
          "internalType": "uint256",
          "name": "endDate",
          "type": "uint256"
        },
        {
          "internalType": "bool",
          "name": "active",
          "type": "bool"
        },
        {
          "internalType": "bool",
          "name": "expired",
          "type": "bool"
        }
      ],
      "stateMutability": "view",
      "type": "function"
    },
    {
      "inputs": [
        {
          "internalType": "uint256",
          "name": "id",
          "type": "uint256"
        },
        {
          "internalType": "uint256",
          "name": "index",
          "type": "uint256"
        }
      ],
      "name": "getComment",
      "outputs": [
        {
          "components": [
            {
              "internalType": "address",
              "name": "commenter",
              "type": "address"
            },
            {
              "internalType": "string",
              "name": "text",
              "type": "string"
            },
            {
              "internalType": "uint256",
              "name": "timestamp",
              "type": "uint256"
            },
            {
              "internalType": "bool",
              "name": "isAnonymous",
              "type": "bool"
            }
          ],
          "internalType": "struct Charity.Comment",
          "name": "",
          "type": "tuple"
        }
      ],
      "stateMutability": "view",
      "type": "function"
    },
    {
      "inputs": [
        {
          "internalType": "uint256",
          "name": "id",
          "type": "uint256"
        }
      ],
      "name": "getCommentsCount",
      "outputs": [
        {
          "internalType": "uint256",
          "name": "",
          "type": "uint256"
        }
      ],
      "stateMutability": "view",
      "type": "function"
    },
    {
      "inputs": [
        {
          "internalType": "uint256",
          "name": "id",
          "type": "uint256"
        },
        {
          "internalType": "uint256",
          "name": "index",
          "type": "uint256"
        }
      ],
      "name": "getDisbursement",
      "outputs": [
        {
          "components": [
            {
              "internalType": "address",
              "name": "recipient",
              "type": "address"
            },
            {
              "internalType": "uint256",
              "name": "amount",
              "type": "uint256"
            },
            {
              "internalType": "uint256",
              "name": "timestamp",
              "type": "uint256"
            },
            {
              "internalType": "uint256",
              "name": "blockNumber",
              "type": "uint256"
            },
            {
              "internalType": "bytes32",
              "name": "txHash",
              "type": "bytes32"
            },
            {
              "internalType": "string",
              "name": "proofImage",
              "type": "string"
            },
            {
              "internalType": "string",
              "name": "note",
              "type": "string"
            }
          ],
          "internalType": "struct Charity.Disbursement",
          "name": "",
          "type": "tuple"
        }
      ],
      "stateMutability": "view",
      "type": "function"
    },
    {
      "inputs": [
        {
          "internalType": "uint256",
          "name": "id",
          "type": "uint256"
        }
      ],
      "name": "getDisbursementsCount",
      "outputs": [
        {
          "internalType": "uint256",
          "name": "",
          "type": "uint256"
        }
      ],
      "stateMutability": "view",
      "type": "function"
    },
    {
      "inputs": [
        {
          "internalType": "uint256",
          "name": "id",
          "type": "uint256"
        },
        {
          "internalType": "uint256",
          "name": "index",
          "type": "uint256"
        }
      ],
      "name": "getDonation",
      "outputs": [
        {
          "components": [
            {
              "internalType": "address",
              "name": "donor",
              "type": "address"
            },
            {
              "internalType": "uint256",
              "name": "amount",
              "type": "uint256"
            },
            {
              "internalType": "uint256",
              "name": "timestamp",
              "type": "uint256"
            },
            {
              "internalType": "uint256",
              "name": "blockNumber",
              "type": "uint256"
            },
            {
              "internalType": "bytes32",
              "name": "txHash",
              "type": "bytes32"
            }
          ],
          "internalType": "struct Charity.Donation",
          "name": "",
          "type": "tuple"
        }
      ],
      "stateMutability": "view",
      "type": "function"
    },
    {
      "inputs": [
        {
          "internalType": "uint256",
          "name": "id",
          "type": "uint256"
        }
      ],
      "name": "getDonationsCount",
      "outputs": [
        {
          "internalType": "uint256",
          "name": "",
          "type": "uint256"
        }
      ],
      "stateMutability": "view",
      "type": "function"
    },
    {
      "inputs": [
        {
          "internalType": "uint256",
          "name": "id",
          "type": "uint256"
        }
      ],
      "name": "getSupporters",
      "outputs": [
        {
          "internalType": "address[]",
          "name": "",
          "type": "address[]"
        }
      ],
      "stateMutability": "view",
      "type": "function"
    },
    {
      "inputs": [
        {
          "internalType": "uint256",
          "name": "id",
          "type": "uint256"
        }
      ],
      "name": "getSupportersCount",
      "outputs": [
        {
          "internalType": "uint256",
          "name": "",
          "type": "uint256"
        }
      ],
      "stateMutability": "view",
      "type": "function"
    },
    {
      "inputs": [
        {
          "internalType": "uint256",
          "name": "id",
          "type": "uint256"
        }
      ],
      "name": "getTotalDisbursed",
      "outputs": [
        {
          "internalType": "uint256",
          "name": "",
          "type": "uint256"
        }
      ],
      "stateMutability": "view",
      "type": "function"
    },
    {
      "inputs": [
        {
          "internalType": "address",
          "name": "",
          "type": "address"
        }
      ],
      "name": "isAdmin",
      "outputs": [
        {
          "internalType": "bool",
          "name": "",
          "type": "bool"
        }
      ],
      "stateMutability": "view",
      "type": "function"
    },
    {
      "inputs": [
        {
          "internalType": "uint256",
          "name": "campaignId",
          "type": "uint256"
        }
      ],
      "name": "isExpired",
      "outputs": [
        {
          "internalType": "bool",
          "name": "",
          "type": "bool"
        }
      ],
      "stateMutability": "view",
      "type": "function"
    },
    {
      "inputs": [
        {
          "internalType": "uint256",
          "name": "campaignId",
          "type": "uint256"
        }
      ],
      "name": "like",
      "outputs": [],
      "stateMutability": "nonpayable",
      "type": "function"
    },
    {
      "inputs": [
        {
          "internalType": "uint256",
          "name": "",
          "type": "uint256"
        },
        {
          "internalType": "address",
          "name": "",
          "type": "address"
        }
      ],
      "name": "liked",
      "outputs": [
        {
          "internalType": "bool",
          "name": "",
          "type": "bool"
        }
      ],
      "stateMutability": "view",
      "type": "function"
    },
    {
      "inputs": [
        {
          "internalType": "uint256",
          "name": "",
          "type": "uint256"
        }
      ],
      "name": "likesCount",
      "outputs": [
        {
          "internalType": "uint256",
          "name": "",
          "type": "uint256"
        }
      ],
      "stateMutability": "view",
      "type": "function"
    },
    {
      "inputs": [],
      "name": "nextCampaignId",
      "outputs": [
        {
          "internalType": "uint256",
          "name": "",
          "type": "uint256"
        }
      ],
      "stateMutability": "view",
      "type": "function"
    },
    {
      "inputs": [],
      "name": "owner",
      "outputs": [
        {
          "internalType": "address",
          "name": "",
          "type": "address"
        }
      ],
      "stateMutability": "view",
      "type": "function"
    },
    {
      "inputs": [
        {
          "internalType": "address",
          "name": "account",
          "type": "address"
        },
        {
          "internalType": "bool",
          "name": "allowed",
          "type": "bool"
        }
      ],
      "name": "setAdmin",
      "outputs": [],
      "stateMutability": "nonpayable",
      "type": "function"
    },
    {
      "inputs": [
        {
          "internalType": "uint256",
          "name": "campaignId",
          "type": "uint256"
        },
        {
          "internalType": "bool",
          "name": "active",
          "type": "bool"
        }
      ],
      "name": "setCampaignActive",
      "outputs": [],
      "stateMutability": "nonpayable",
      "type": "function"
    },
    {
      "inputs": [
        {
          "internalType": "uint256",
          "name": "campaignId",
          "type": "uint256"
        }
      ],
      "name": "unlike",
      "outputs": [],
      "stateMutability": "nonpayable",
      "type": "function"
    },
    {
      "inputs": [
        {
          "internalType": "uint256",
          "name": "campaignId",
          "type": "uint256"
        },
        {
          "internalType": "string",
          "name": "title",
          "type": "string"
        },
        {
          "internalType": "string",
          "name": "description",
          "type": "string"
        },
        {
          "internalType": "string",
          "name": "media",
          "type": "string"
        },
        {
          "internalType": "string",
          "name": "beneficiary",
          "type": "string"
        }
      ],
      "name": "updateCampaign",
      "outputs": [],
      "stateMutability": "nonpayable",
      "type": "function"
    },
    {
      "stateMutability": "payable",
      "type": "receive"
    }
  ],
  "bytecode": "0x6080806040523460435760018080555f80546001600160a01b0319163390811782558152600a60205260409020805460ff1916909117905561241f90816100488239f35b5f80fdfe60806040526004361015610010575b005b5f3560e01c806302c4278714611fc357806306ec003214611f99578063141961bc14611e4c578063189960ae14611e1f57806324d7806c14611de25780633c60b55914611db857806346eec49a1461170f57806348892753146116415780634b0bddd2146115b55780634c9b78da1461158b5780634f63829c146114d3578063683d6e58146114a957806374d21ae0146113d057806376ff7bf41461131b5780637903a756146112fe5780637ca741cb14610eef5780638da5cb5b14610ec8578063a43a99b814610d9e578063ad11728b14610d33578063b0e1c1e114610c6f578063b1b81dd914610a33578063d1eb06f214610a09578063d9548e53146109da578063d993de6214610947578063e64c5ded146104de578063e82935da146103fc5763f14faf6f0361000e5760203660031901126103f85760043534156103bc57805f52600260205260405f209061016b82541515612311565b61017b60ff600e84015416612352565b6008820161018a3482546123dc565b905560405160208101904382523360601b6040820152346054820152426074820152607481526101bb6094826120c1565b51902091815f52600360205260405f206040516101d78161208b565b338152602081019134835260408201428152606083019043825260808401928884528054600160401b81101561039557610216916001820181556122f8565b9590956103a957935185546001600160a01b0319166001600160a01b039190911617855592516001850155915160028401559051600383015551600491909101555f82815260076020908152604080832033845290915290205460ff1615610314575b600701546001600160a01b0316806102c1575b506040519134835260208301527fc5b4df142a4930e9f5f4ae999caff9bc2eee2deb14046ac4bff24d1c730962ea60403393a3005b5f8080809334905af16102d26123ad565b50156102de575f61028c565b60405162461bcd60e51b815260206004820152600e60248201526d199bdc9dd85c990819985a5b195960921b6044820152606490fd5b5f8281526007602090815260408083203384528252808320805460ff1916600117905584835260069091529020805490600160401b8210156103955760018201808255821015610381575f5260205f2001336bffffffffffffffffffffffff60a01b825416179055610279565b634e487b7160e01b5f52603260045260245ffd5b634e487b7160e01b5f52604160045260245ffd5b634e487b7160e01b5f525f60045260245ffd5b60405162461bcd60e51b81526020600482015260146024820152730646f6e6174696f6e206d757374206265203e20360641b6044820152606490fd5b5f80fd5b346103f85760203660031901126103f857600435805f52600260205261042760405f20541515612311565b5f81815260086020908152604080832033845290915290205460ff166104a9575f8181526008602090815260408083203384528252808320805460ff1916600117905583835260099091529020805461047f90612231565b905533907f6790e8ded18c25977540ba89bbcefd83da7fbe624085856758cf343178c4d6125f80a3005b60405162461bcd60e51b815260206004820152600d60248201526c185b1c9958591e481b1a5ad959609a1b6044820152606490fd5b346103f85760a03660031901126103f8576004356104fa61200c565b906044356064356001600160401b0381116103f85761051d9036906004016121a6565b906084356001600160401b0381116103f85761053d9036906004016121a6565b335f52600a60205261055560ff60405f2054166121f8565b855f52600260205260405f209361056e85541515612311565b851561090d578547106108d157604051602081019043825260018060a01b038a16996bffffffffffffffffffffffff199060601b166040820152876054820152426074820152607481526105c36094826120c1565b519020945f8080808a8d5af16105d76123ad565b501561089a57600981016105ec8882546123dc565b9055600c42910155865f52600460205260405f20936040519361060e856120a6565b8985526020850188815261064c604087019242845261063d606089019543875260808a01978c8952369161225a565b9660a08901978852369161225a565b9660c087019788528054600160401b8110156103955761067191600182018155612394565b9690966103a9575186546001600160a01b0319166001600160a01b039190911617865551600186015551600285015551600384015551600483015551805160058301916001600160401b038211610395576106d6826106d08554612038565b85612290565b602090601f831160011461083357918061070a9260069695945f92610828575b50508160011b915f199060031b1c19161790565b90555b0190518051906001600160401b0382116103955761072f826106d08554612038565b602090601f831160011461079f5782604095937f47a070fddc333f091b62fe7651c416dec4f2f79654dc9ee5412312d7b5eeae32979593610784935f926107945750508160011b915f199060031b1c19161790565b90555b82519182526020820152a3005b015190508a806106f6565b90601f19831691845f52815f20925f5b8181106108105750926001928592604098967f47a070fddc333f091b62fe7651c416dec4f2f79654dc9ee5412312d7b5eeae329a9896106107f8575b505050811b019055610787565b01515f1960f88460031b161c191690558980806107eb565b929360206001819287860151815501950193016107af565b015190508b806106f6565b90601f19831691845f52815f20925f5b81811061088257509160019391856006989796941061086a575b505050811b01905561070d565b01515f1960f88460031b161c191690558a808061085d565b92936020600181928786015181550195019301610843565b60405162461bcd60e51b815260206004820152600f60248201526e1d1c985b9cd9995c8819985a5b1959608a1b6044820152606490fd5b60405162461bcd60e51b8152602060048201526014602482015273696e73756666696369656e742062616c616e636560601b6044820152606490fd5b60405162461bcd60e51b81526020600482015260126024820152710616d6f756e74206d757374206265203e20360741b6044820152606490fd5b346103f85760203660031901126103f8576004355f52600260205260405f2080546006820154600883015492600981015490600b81015491610993600260ff600e8501541693016120e2565b956109b260405197889788526101006020890152610100880190612182565b946040870152606086015260808501528160a0850152151560c0840152421160e08301520390f35b346103f85760203660031901126103f8576004355f5260026020526020600b60405f2001544211604051908152f35b346103f85760203660031901126103f8576004355f526006602052602060405f2054604051908152f35b346103f85760603660031901126103f8576004356024356001600160401b0381116103f857610a669036906004016121a6565b91906044358015158091036103f857825f526002602052610a8c60405f20541515612311565b825f52600560205260405f209060405191610aa683612070565b338352610ab436878661225a565b602084019081526040840191428352606085019384528054600160401b81101561039557610ae7916001820181556122df565b9490946103a9575184546001600160a01b0319166001600160a01b039190911617845551805160018501916001600160401b03821161039557610b2e826106d08554612038565b602090601f8311600114610be25792610b8883610ba797947fcc2d7dd2085ae6644799a42c0174adf9afc10a43f26db5eac3ddd1f96d1d64be9a9997946003975f92610bd75750508160011b915f199060031b1c19161790565b90555b51600284015551151591019060ff801983541691151516179055565b83604051916020835281602084015260408301375f604085830101526040813395601f80199101168101030190a3005b015190508d806106f6565b90601f19831691845f52815f20925f5b818110610c575750937fcc2d7dd2085ae6644799a42c0174adf9afc10a43f26db5eac3ddd1f96d1d64be999896936003969360019383610ba79b9810610c40575b505050811b019055610b8b565b01515f1983891b60f8161c191690558c8080610c33565b92936020600181928786015181550195019301610bf2565b346103f85760203660031901126103f857600435335f52600a602052610c9b60ff60405f2054166121f8565b805f52600260205260405f20610cb381541515612311565b600e8101805460ff811615610cfd5760ff19169055600c42910155604051904282527fe120b15313f47b70c9196f36751e63aa50b67cf9316c6b5d695b4ad33ce2076f60203393a3005b60405162461bcd60e51b815260206004820152600e60248201526d185b1c9958591e4818db1bdcd95960921b6044820152606490fd5b346103f85760403660031901126103f857600435610d8a610d526121e9565b335f52600a602052610d6a60ff60405f2054166121f8565b825f526002602052600e60405f20019060ff801983541691151516179055565b5f52600260205242600c60405f2001555f80f35b346103f857610df2610daf366121d3565b90606060c0604051610dc0816120a6565b5f81525f60208201525f60408201525f838201525f60808201528260a082015201525f52600460205260405f20612394565b50604051610dff816120a6565b81546001600160a01b031681526001820154602082019081526002830154604083019081526003840154606084019081526004850154608085019081529294610ec493610eb192610e656006610e57600586016120e2565b9460a08a01958652016120e2565b9460c0880195865260405198899860208a5260018060a01b0390511660208a01525160408901525160608801525160808701525160a08601525160e060c0860152610100850190612182565b9051838203601f190160e0850152612182565b0390f35b346103f8575f3660031901126103f8575f546040516001600160a01b039091168152602090f35b346103f85760a03660031901126103f8576004356024356001600160401b0381116103f857610f229036906004016121a6565b6044929192356001600160401b0381116103f857610f449036906004016121a6565b906064356001600160401b0381116103f857610f649036906004016121a6565b90916084356001600160401b0381116103f857610f859036906004016121a6565b949097335f52600a602052610fa060ff60405f2054166121f8565b875f52600260205260405f2096610fb988541515612311565b610fc960ff600e8a015416612352565b60028801916001600160401b03821161039557610fea826106d08554612038565b5f90601f831160011461129a5761101792915f918361128f5750508160011b915f199060031b1c19161790565b90555b60038601916001600160401b0382116103955761103b826106d08554612038565b5f90601f831160011461122b5761106892915f91836112205750508160011b915f199060031b1c19161790565b90555b60048401916001600160401b0382116103955761108c826106d08554612038565b5f90601f83116001146111bc576110b992915f91836111b15750508160011b915f199060031b1c19161790565b90555b600d8201906001600160401b038111610395576110e3816110dd8454612038565b84612290565b5f601f821160011461114e578190611112939495965f926111435750508160011b915f199060031b1c19161790565b90555b600c4291015533907fd665966ce5674a1d0a2c6f5dc9127cef98be3cdc2535f14fc0b1f36f0479839c5f80a3005b0135905086806106f6565b601f19821695835f5260205f20915f5b88811061119957508360019596979810611180575b505050811b019055611115565b01355f19600384901b60f8161c19169055858080611173565b9092602060018192868601358155019401910161115e565b0135905088806106f6565b601f19831691845f5260205f20925f5b81811061120857509084600195949392106111ef575b505050811b0190556110bc565b01355f19600384901b60f8161c191690558780806111e2565b919360206001819287870135815501950192016111cc565b013590508a806106f6565b601f19831691845f5260205f20925f5b818110611277575090846001959493921061125e575b505050811b01905561106b565b01355f19600384901b60f8161c19169055898080611251565b9193602060018192878701358155019501920161123b565b013590508c806106f6565b601f19831691845f5260205f20925f5b8181106112e657509084600195949392106112cd575b505050811b01905561101a565b01355f19600384901b60f8161c191690558b80806112c0565b919360206001819287870135815501950192016112aa565b346103f8575f3660031901126103f8576020600154604051908152f35b346103f85760a061136561132e366121d3565b905f608060405161133e8161208b565b82815282602082015282604082015282606082015201525f52600360205260405f206122f8565b506040516113728161208b565b600180841b038254169182825260018101546020830190815260028201549060408401918252608060046003850154946060870195865201549401938452604051948552516020850152516040840152516060830152516080820152f35b346103f85760203660031901126103f8576004355f81815260086020908152604080832033845290915290205460ff1615611478575f8181526008602090815260408083203384528252808320805460ff191690558383526009909152902080548015611464575f1901905533907fcaadb8eaa8eea76230cccab7fb207c387f40489b1ce59b8dc6e51a5e584e3f585f80a3005b634e487b7160e01b5f52601160045260245ffd5b60405162461bcd60e51b81526020600482015260096024820152681b9bdd081b1a5ad95960ba1b6044820152606490fd5b346103f85760203660031901126103f8576004355f526003602052602060405f2054604051908152f35b346103f85760203660031901126103f8576004355f52600660205260405f20604051806020835491828152019081935f5260205f20905f5b81811061156c57505050816115219103826120c1565b604051918291602083019060208452518091526040830191905f5b81811061154a575050500390f35b82516001600160a01b031684528594506020938401939092019160010161153c565b82546001600160a01b031684526020909301926001928301920161150b565b346103f85760203660031901126103f8576004355f526005602052602060405f2054604051908152f35b346103f85760403660031901126103f8576115ce612022565b6115d66121e9565b5f546001600160a01b0316330361160f5761000e9160018060a01b03165f52600a60205260405f209060ff801983541691151516179055565b60405162461bcd60e51b815260206004820152600a60248201526937b7363c9037bbb732b960b11b6044820152606490fd5b346103f857611683611652366121d3565b905f606060405161166281612070565b82815281602082015282604082015201525f52600560205260405f206122df565b5060405161169081612070565b81546001600160a01b031681526116a9600183016120e2565b916020820192835260ff6003600283015492604085019384520154166060830190151581526116fc6040519485946020865260018060a01b039051166020860152516080604086015260a0850190612182565b9151606084015251151560808301520390f35b346103f8576101003660031901126103f8576004356001600160401b0381116103f8576117409036906004016121a6565b906024356001600160401b0381116103f8576117609036906004016121a6565b906044356001600160401b0381116103f8576117809036906004016121a6565b91906064356001600160401b0381116103f8576117a19036906004016121a6565b60a4356001600160a01b03811694929392908590036103f85760c4359360e4356001600160401b0381116103f8576117dd9036906004016121a6565b949092335f52600a6020526117f860ff60405f2054166121f8565b42871115611d73576001549a61180d8c612231565b6001556040519c6101e08e016001600160401b0381118f821017610395576040528c8e523360208f01526118439136919061225a565b9960408d019a8b5236906118569261225a565b9760608c0198895236906118699261225a565b9260808b01938452369061187c9261225a565b9260a08a0193845260c08a0194608435865260e08b019687526101008b015f90526101208b015f9052426101408c01526101608b0152426101808b015236906118c49261225a565b6101a089015260016101c089018181525f8981526002602081815260409092208c518155918c015193820180546001600160a01b0319166001600160a01b03959095169490941790935597518051919792890191906001600160401b03821161039557611935826106d08554612038565b602090601f8311600114611d105761196392915f9183610bd75750508160011b915f199060031b1c19161790565b90555b51805160038801916001600160401b0382116103955761198a826106d08554612038565b602090601f8311600114611cad576119b892915f9183611ca25750508160011b915f199060031b1c19161790565b90555b51805160048701916001600160401b038211610395576119df826106d08554612038565b602090601f8311600114611c3f57611a0d92915f91836108285750508160011b915f199060031b1c19161790565b90555b51805160058601916001600160401b03821161039557611a34826106d08554612038565b602090601f8311600114611bdc57611a6292915f91836107945750508160011b915f199060031b1c19161790565b90555b516006840155516007830180546001600160a01b0319166001600160a01b039290921691909117905561010084015160088301556101208401516009830155610140840151600a830155610160840151600b830155610180840151600c8301556101a0909301518051909390600d8301906001600160401b03811161039557602095611af5826106d08554612038565b8690601f8311600114611b725782611b44969593600e9593611b2b935f926107945750508160011b915f199060031b1c19161790565b90555b51151591019060ff801983541691151516179055565b6040519033817f633109eec20320eded000fc1e2634211aa7e92ba3f5b15faf6dcdafca05094e45f80a38152f35b90601f19831691845f52815f20925f5b818110611bc55750926001928592611b44999896600e989610611bad575b505050811b019055611b2e565b01515f1960f88460031b161c19169055898080611ba0565b92938a600181928786015181550195019301611b82565b90601f19831691845f52815f20925f5b818110611c275750908460019594939210611c0f575b505050811b019055611a65565b01515f1960f88460031b161c19169055898080611c02565b92936020600181928786015181550195019301611bec565b90601f19831691845f52815f20925f5b818110611c8a5750908460019594939210611c72575b505050811b019055611a10565b01515f1960f88460031b161c191690558a8080611c65565b92936020600181928786015181550195019301611c4f565b015190508c806106f6565b90601f19831691845f52815f20925f5b818110611cf85750908460019594939210611ce0575b505050811b0190556119bb565b01515f1960f88460031b161c191690558b8080611cd3565b92936020600181928786015181550195019301611cbd565b90601f19831691845f52815f20925f5b818110611d5b5750908460019594939210611d43575b505050811b019055611966565b01515f1960f88460031b161c191690558c8080611d36565b92936020600181928786015181550195019301611d20565b60405162461bcd60e51b815260206004820152601a60248201527f656e642064617465206d75737420626520696e206675747572650000000000006044820152606490fd5b346103f85760203660031901126103f8576004355f526009602052602060405f2054604051908152f35b346103f85760203660031901126103f8576001600160a01b03611e03612022565b165f52600a602052602060ff60405f2054166040519015158152f35b346103f85760203660031901126103f8576004355f5260026020526020600960405f200154604051908152f35b346103f85760203660031901126103f8576004355f52600260205260405f208054600160a01b600190036001830154169160028101611e8a906120e2565b90611e97600382016120e2565b611ea3600483016120e2565b90611eb0600584016120e2565b91600684015492600160a01b600190036007860154166008860154600987015491600a88015493600b89015495600c8a015497600d8b01611ef0906120e2565b9a600e015460ff169b6040519e8f9e8f908152602001528d604081016101e090526101e001611f1e91612182565b8d810360608f0152611f2f91612182565b8c810360808e0152611f4091612182565b8b810360a08d0152611f5191612182565b9660c08b015260e08a01526101008901526101208801526101408701526101608601526101808501528381036101a0850152611f8c91612182565b9015156101c08301520390f35b346103f85760203660031901126103f8576004355f526004602052602060405f2054604051908152f35b346103f85760403660031901126103f857611fdc61200c565b6004355f52600860205260405f209060018060a01b03165f52602052602060ff60405f2054166040519015158152f35b602435906001600160a01b03821682036103f857565b600435906001600160a01b03821682036103f857565b90600182811c92168015612066575b602083101461205257565b634e487b7160e01b5f52602260045260245ffd5b91607f1691612047565b608081019081106001600160401b0382111761039557604052565b60a081019081106001600160401b0382111761039557604052565b60e081019081106001600160401b0382111761039557604052565b90601f801991011681019081106001600160401b0382111761039557604052565b9060405191825f8254926120f584612038565b8084529360018116908115612160575060011461211c575b5061211a925003836120c1565b565b90505f9291925260205f20905f915b81831061214457505090602061211a928201015f61210d565b602091935080600191548385890101520191019091849261212b565b90506020925061211a94915060ff191682840152151560051b8201015f61210d565b805180835260209291819084018484015e5f828201840152601f01601f1916010190565b9181601f840112156103f8578235916001600160401b0383116103f857602083818601950101116103f857565b60409060031901126103f8576004359060243590565b6024359081151582036103f857565b156121ff57565b60405162461bcd60e51b815260206004820152600a60248201526937b7363c9030b236b4b760b11b6044820152606490fd5b5f1981146114645760010190565b6001600160401b03811161039557601f01601f191660200190565b9291926122668261223f565b9161227460405193846120c1565b8294818452818301116103f8578281602093845f960137010152565b601f821161229d57505050565b5f5260205f20906020601f840160051c830193106122d5575b601f0160051c01905b8181106122ca575050565b5f81556001016122bf565b90915081906122b6565b8054821015610381575f5260205f209060021b01905f90565b8054821015610381575f52600560205f20910201905f90565b1561231857565b60405162461bcd60e51b815260206004820152601260248201527118d85b5c185a59db881b9bdd08199bdd5b9960721b6044820152606490fd5b1561235957565b60405162461bcd60e51b815260206004820152601360248201527263616d706169676e206e6f742061637469766560681b6044820152606490fd5b8054821015610381575f52600760205f20910201905f90565b3d156123d7573d906123be8261223f565b916123cc60405193846120c1565b82523d5f602084013e565b606090565b919082018092116114645756fea2646970667358221220394a190f79c219d384e899bb6a79aa969250d546fd8352d5e6ae3acaa796249964736f6c634300081c0033",
  "linkReferences": {},
  "deployedLinkReferences": {},
  "immutableReferences": {},
  "inputSourceName": "project/contracts/Charity.sol",
  "buildInfoId": "solc-0_8_28-7be0531812b91f5b4ada8c558630b51851c02d79"
}