{
  "_format": "hh3-artifact-1",
  "contractName": "Charity",
  "sourceName": "contracts/Charity.sol",
  "abi": [
    {
      "inputs": [],
      "stateMutability": "nonpayable",
      "type": "constructor"
    },
    {
      "anonymous": false,
      "inputs": [
        {
          "indexed": true,
          "internalType": "uint256",
          "name": "id",
          "type": "uint256"
        },
        {
          "indexed": true,
          "internalType": "address",
          "name": "closer",
          "type": "address"
        },
        {
          "indexed": false,
          "internalType": "uint256",
          "name": "timestamp",
          "type": "uint256"
        }
      ],
      "name": "CampaignClosed",
      "type": "event"
    },
    {
      "anonymous": false,
      "inputs": [
        {
          "indexed": true,
          "internalType": "uint256",
          "name": "id",
          "type": "uint256"
        },
        {
          "indexed": true,
          "internalType": "address",
          "name": "creator",
          "type": "address"
        }
      ],
      "name": "CampaignCreated",
      "type": "event"
    },
    {
      "anonymous": false,
      "inputs": [
        {
          "indexed": true,
          "internalType": "uint256",
          "name": "id",
          "type": "uint256"
        },
        {
          "indexed": true,
          "internalType": "address",
          "name": "updater",
          "type": "address"
        }
      ],
      "name": "CampaignUpdated",
      "type": "event"
    },
    {
      "anonymous": false,
      "inputs": [
        {
          "indexed": true,
          "internalType": "uint256",
          "name": "campaignId",
          "type": "uint256"
        },
        {
          "indexed": true,
          "internalType": "address",
          "name": "commenter",
          "type": "address"
        },
        {
          "indexed": false,
          "internalType": "string",
          "name": "text",
          "type": "string"
        }
      ],
      "name": "CommentAdded",
      "type": "event"
    },
    {
      "anonymous": false,
      "inputs": [
        {
          "indexed": true,
          "internalType": "uint256",
          "name": "campaignId",
          "type": "uint256"
        },
        {
          "indexed": true,
          "internalType": "address",
          "name": "recipient",
          "type": "address"
        },
        {
          "indexed": false,
          "internalType": "uint256",
          "name": "amount",
          "type": "uint256"
        },
        {
          "indexed": false,
          "internalType": "bytes32",
          "name": "txHash",
          "type": "bytes32"
        }
      ],
      "name": "Disbursed",
      "type": "event"
    },
    {
      "anonymous": false,
      "inputs": [
        {
          "indexed": true,
          "internalType": "uint256",
          "name": "campaignId",
          "type": "uint256"
        },
        {
          "indexed": true,
          "internalType": "address",
          "name": "donor",
          "type": "address"
        },
        {
          "indexed": false,
          "internalType": "uint256",
          "name": "amount",
          "type": "uint256"
        },
        {
          "indexed": false,
          "internalType": "bytes32",
          "name": "txHash",
          "type": "bytes32"
        }
      ],
      "name": "DonationReceived",
      "type": "event"
    },
    {
      "anonymous": false,
      "inputs": [
        {
          "indexed": true,
          "internalType": "uint256",
          "name": "campaignId",
          "type": "uint256"
        },
        {
          "indexed": true,
          "internalType": "address",
          "name": "liker",
          "type": "address"
        }
      ],
      "name": "Liked",
      "type": "event"
    },
    {
      "anonymous": false,
      "inputs": [
        {
          "indexed": true,
          "internalType": "uint256",
          "name": "campaignId",
          "type": "uint256"
        },
        {
          "indexed": true,
          "internalType": "address",
          "name": "liker",
          "type": "address"
        }
      ],
      "name": "Unliked",
      "type": "event"
    },
    {
      "stateMutability": "payable",
      "type": "fallback"
    },
    {
      "inputs": [
        {
          "internalType": "uint256",
          "name": "campaignId",
          "type": "uint256"
        },
        {
          "internalType": "string",
          "name": "text",
          "type": "string"
        },
        {
          "internalType": "bool",
          "name": "anon",
          "type": "bool"
        }
      ],
      "name": "addComment",
      "outputs": [],
      "stateMutability": "nonpayable",
      "type": "function"
    },
    {
      "inputs": [
        {
          "internalType": "uint256",
          "name": "",
          "type": "uint256"
        }
      ],
      "name": "campaigns",
      "outputs": [
        {
          "internalType": "uint256",
          "name": "id",
          "type": "uint256"
        },
        {
          "internalType": "address",
          "name": "creator",
          "type": "address"
        },
        {
          "internalType": "string",
          "name": "title",
          "type": "string"
        },
        {
          "internalType": "string",
          "name": "description",
          "type": "string"
        },
        {
          "internalType": "string",
          "name": "media",
          "type": "string"
        },
        {
          "internalType": "string",
          "name": "location",
          "type": "string"
        },
        {
          "internalType": "uint256",
          "name": "targetAmount",
          "type": "uint256"
        },
        {
          "internalType": "address payable",
          "name": "campaignWallet",
          "type": "address"
        },
        {
          "internalType": "uint256",
          "name": "collected",
          "type": "uint256"
        },
        {
          "internalType": "uint256",
          "name": "totalDisbursed",
          "type": "uint256"
        },
        {
          "internalType": "uint256",
          "name": "createdAt",
          "type": "uint256"
        },
        {
          "internalType": "uint256",
          "name": "endDate",
          "type": "uint256"
        },
        {
          "internalType": "uint256",
          "name": "updatedAt",
          "type": "uint256"
        },
        {
          "internalType": "string",
          "name": "beneficiary",
          "type": "string"
        },
        {
          "internalType": "bool",
          "name": "active",
          "type": "bool"
        }
      ],
      "stateMutability": "view",
      "type": "function"
    },
    {
      "inputs": [
        {
          "internalType": "uint256",
          "name": "campaignId",
          "type": "uint256"
        }
      ],
      "name": "closeCampaign",
      "outputs": [],
      "stateMutability": "nonpayable",
      "type": "function"
    },
    {
      "inputs": [
        {
          "internalType": "string",
          "name": "title",
          "type": "string"
        },
        {
          "internalType": "string",
          "name": "description",
          "type": "string"
        },
        {
          "internalType": "string",
          "name": "media",
          "type": "string"
        },
        {
          "internalType": "string",
          "name": "location",
          "type": "string"
        },
        {
          "internalType": "uint256",
          "name": "targetAmount",
          "type": "uint256"
        },
        {
          "internalType": "address payable",
          "name": "campaignWallet",
          "type": "address"
        },
        {
          "internalType": "uint256",
          "name": "endDate",
          "type": "uint256"
        },
        {
          "internalType": "string",
          "name": "beneficiary",
          "type": "string"
        }
      ],
      "name": "createCampaign",
      "outputs": [
        {
          "internalType": "uint256",
          "name": "",
          "type": "uint256"
        }
      ],
      "stateMutability": "nonpayable",
      "type": "function"
    },
    {
      "inputs": [
        {
          "internalType": "uint256",
          "name": "campaignId",
          "type": "uint256"
        },
        {
          "internalType": "address payable",
          "name": "recipient",
          "type": "address"
        },
        {
          "internalType": "uint256",
          "name": "amount",
          "type": "uint256"
        }
      ],
      "name": "disburseFromContract",
      "outputs": [],
      "stateMutability": "nonpayable",
      "type": "function"
    },
    {
      "inputs": [
        {
          "internalType": "uint256",
          "name": "campaignId",
          "type": "uint256"
        }
      ],
      "name": "donate",
      "outputs": [],
      "stateMutability": "payable",
      "type": "function"
    },
    {
      "inputs": [
        {
          "internalType": "uint256",
          "name": "id",
          "type": "uint256"
        }
      ],
      "name": "getCampaignDetails",
      "outputs": [
        {
          "internalType": "uint256",
          "name": "_id",
          "type": "uint256"
        },
        {
          "internalType": "string",
          "name": "title",
          "type": "string"
        },
        {
          "internalType": "uint256",
          "name": "targetAmount",
          "type": "uint256"
        },
        {
          "internalType": "uint256",
          "name": "collected",
          "type": "uint256"
        },
        {
          "internalType": "uint256",
          "name": "totalDisbursed",
          "type": "uint256"
        },
        {
          "internalType": "uint256",
          "name": "endDate",
          "type": "uint256"
        },
        {
          "internalType": "bool",
          "name": "active",
          "type": "bool"
        },
        {
          "internalType": "bool",
          "name": "expired",
          "type": "bool"
        }
      ],
      "stateMutability": "view",
      "type": "function"
    },
    {
      "inputs": [
        {
          "internalType": "uint256",
          "name": "id",
          "type": "uint256"
        },
        {
          "internalType": "uint256",
          "name": "index",
          "type": "uint256"
        }
      ],
      "name": "getComment",
      "outputs": [
        {
          "components": [
            {
              "internalType": "address",
              "name": "commenter",
              "type": "address"
            },
            {
              "internalType": "string",
              "name": "text",
              "type": "string"
            },
            {
              "internalType": "uint256",
              "name": "timestamp",
              "type": "uint256"
            },
            {
              "internalType": "bool",
              "name": "isAnonymous",
              "type": "bool"
            }
          ],
          "internalType": "struct Charity.Comment",
          "name": "",
          "type": "tuple"
        }
      ],
      "stateMutability": "view",
      "type": "function"
    },
    {
      "inputs": [
        {
          "internalType": "uint256",
          "name": "id",
          "type": "uint256"
        }
      ],
      "name": "getCommentsCount",
      "outputs": [
        {
          "internalType": "uint256",
          "name": "",
          "type": "uint256"
        }
      ],
      "stateMutability": "view",
      "type": "function"
    },
    {
      "inputs": [
        {
          "internalType": "uint256",
          "name": "id",
          "type": "uint256"
        },
        {
          "internalType": "uint256",
          "name": "index",
          "type": "uint256"
        }
      ],
      "name": "getDisbursement",
      "outputs": [
        {
          "components": [
            {
              "internalType": "address",
              "name": "recipient",
              "type": "address"
            },
            {
              "internalType": "uint256",
              "name": "amount",
              "type": "uint256"
            },
            {
              "internalType": "uint256",
              "name": "timestamp",
              "type": "uint256"
            },
            {
              "internalType": "uint256",
              "name": "blockNumber",
              "type": "uint256"
            },
            {
              "internalType": "bytes32",
              "name": "txHash",
              "type": "bytes32"
            }
          ],
          "internalType": "struct Charity.Disbursement",
          "name": "",
          "type": "tuple"
        }
      ],
      "stateMutability": "view",
      "type": "function"
    },
    {
      "inputs": [
        {
          "internalType": "uint256",
          "name": "id",
          "type": "uint256"
        }
      ],
      "name": "getDisbursementsCount",
      "outputs": [
        {
          "internalType": "uint256",
          "name": "",
          "type": "uint256"
        }
      ],
      "stateMutability": "view",
      "type": "function"
    },
    {
      "inputs": [
        {
          "internalType": "uint256",
          "name": "id",
          "type": "uint256"
        },
        {
          "internalType": "uint256",
          "name": "index",
          "type": "uint256"
        }
      ],
      "name": "getDonation",
      "outputs": [
        {
          "components": [
            {
              "internalType": "address",
              "name": "donor",
              "type": "address"
            },
            {
              "internalType": "uint256",
              "name": "amount",
              "type": "uint256"
            },
            {
              "internalType": "uint256",
              "name": "timestamp",
              "type": "uint256"
            },
            {
              "internalType": "uint256",
              "name": "blockNumber",
              "type": "uint256"
            },
            {
              "internalType": "bytes32",
              "name": "txHash",
              "type": "bytes32"
            }
          ],
          "internalType": "struct Charity.Donation",
          "name": "",
          "type": "tuple"
        }
      ],
      "stateMutability": "view",
      "type": "function"
    },
    {
      "inputs": [
        {
          "internalType": "uint256",
          "name": "id",
          "type": "uint256"
        }
      ],
      "name": "getDonationsCount",
      "outputs": [
        {
          "internalType": "uint256",
          "name": "",
          "type": "uint256"
        }
      ],
      "stateMutability": "view",
      "type": "function"
    },
    {
      "inputs": [
        {
          "internalType": "uint256",
          "name": "id",
          "type": "uint256"
        }
      ],
      "name": "getSupporters",
      "outputs": [
        {
          "internalType": "address[]",
          "name": "",
          "type": "address[]"
        }
      ],
      "stateMutability": "view",
      "type": "function"
    },
    {
      "inputs": [
        {
          "internalType": "uint256",
          "name": "id",
          "type": "uint256"
        }
      ],
      "name": "getSupportersCount",
      "outputs": [
        {
          "internalType": "uint256",
          "name": "",
          "type": "uint256"
        }
      ],
      "stateMutability": "view",
      "type": "function"
    },
    {
      "inputs": [
        {
          "internalType": "uint256",
          "name": "id",
          "type": "uint256"
        }
      ],
      "name": "getTotalDisbursed",
      "outputs": [
        {
          "internalType": "uint256",
          "name": "",
          "type": "uint256"
        }
      ],
      "stateMutability": "view",
      "type": "function"
    },
    {
      "inputs": [
        {
          "internalType": "address",
          "name": "",
          "type": "address"
        }
      ],
      "name": "isAdmin",
      "outputs": [
        {
          "internalType": "bool",
          "name": "",
          "type": "bool"
        }
      ],
      "stateMutability": "view",
      "type": "function"
    },
    {
      "inputs": [
        {
          "internalType": "uint256",
          "name": "campaignId",
          "type": "uint256"
        }
      ],
      "name": "isExpired",
      "outputs": [
        {
          "internalType": "bool",
          "name": "",
          "type": "bool"
        }
      ],
      "stateMutability": "view",
      "type": "function"
    },
    {
      "inputs": [
        {
          "internalType": "uint256",
          "name": "campaignId",
          "type": "uint256"
        }
      ],
      "name": "like",
      "outputs": [],
      "stateMutability": "nonpayable",
      "type": "function"
    },
    {
      "inputs": [
        {
          "internalType": "uint256",
          "name": "",
          "type": "uint256"
        },
        {
          "internalType": "address",
          "name": "",
          "type": "address"
        }
      ],
      "name": "liked",
      "outputs": [
        {
          "internalType": "bool",
          "name": "",
          "type": "bool"
        }
      ],
      "stateMutability": "view",
      "type": "function"
    },
    {
      "inputs": [
        {
          "internalType": "uint256",
          "name": "",
          "type": "uint256"
        }
      ],
      "name": "likesCount",
      "outputs": [
        {
          "internalType": "uint256",
          "name": "",
          "type": "uint256"
        }
      ],
      "stateMutability": "view",
      "type": "function"
    },
    {
      "inputs": [],
      "name": "nextCampaignId",
      "outputs": [
        {
          "internalType": "uint256",
          "name": "",
          "type": "uint256"
        }
      ],
      "stateMutability": "view",
      "type": "function"
    },
    {
      "inputs": [],
      "name": "owner",
      "outputs": [
        {
          "internalType": "address",
          "name": "",
          "type": "address"
        }
      ],
      "stateMutability": "view",
      "type": "function"
    },
    {
      "inputs": [
        {
          "internalType": "address",
          "name": "account",
          "type": "address"
        },
        {
          "internalType": "bool",
          "name": "allowed",
          "type": "bool"
        }
      ],
      "name": "setAdmin",
      "outputs": [],
      "stateMutability": "nonpayable",
      "type": "function"
    },
    {
      "inputs": [
        {
          "internalType": "uint256",
          "name": "campaignId",
          "type": "uint256"
        },
        {
          "internalType": "bool",
          "name": "active",
          "type": "bool"
        }
      ],
      "name": "setCampaignActive",
      "outputs": [],
      "stateMutability": "nonpayable",
      "type": "function"
    },
    {
      "inputs": [
        {
          "internalType": "uint256",
          "name": "campaignId",
          "type": "uint256"
        }
      ],
      "name": "unlike",
      "outputs": [],
      "stateMutability": "nonpayable",
      "type": "function"
    },
    {
      "inputs": [
        {
          "internalType": "uint256",
          "name": "campaignId",
          "type": "uint256"
        },
        {
          "internalType": "string",
          "name": "title",
          "type": "string"
        },
        {
          "internalType": "string",
          "name": "description",
          "type": "string"
        },
        {
          "internalType": "string",
          "name": "media",
          "type": "string"
        },
        {
          "internalType": "string",
          "name": "beneficiary",
          "type": "string"
        }
      ],
      "name": "updateCampaign",
      "outputs": [],
      "stateMutability": "nonpayable",
      "type": "function"
    },
    {
      "stateMutability": "payable",
      "type": "receive"
    }
  ],
  "bytecode": "0x6080806040523460435760018080555f80546001600160a01b0319163390811782558152600a60205260409020805460ff191690911790556120f090816100488239f35b5f80fdfe60806040526004361015610010575b005b5f3560e01c806302c4278714611c0b57806306ec003214611be1578063141961bc14611a94578063189960ae14611a6757806324d7806c14611a2a5780633c60b55914611a0057806346eec49a1461134157806348892753146112735780634b0bddd2146111e75780634c9b78da146111bd5780634f63829c14611105578063683d6e58146110db57806374d21ae01461100257806376ff7bf414610fd25780637903a75614610fb55780637ca741cb14610ba65780638da5cb5b14610b7f578063a43a99b814610b0a578063a8dcb615146108ff578063ad11728b14610894578063b0e1c1e1146107d0578063b1b81dd91461057a578063d1eb06f214610550578063d9548e5314610521578063d993de621461048e578063e82935da146103ac5763f14faf6f0361000e5760203660031901126103a857600435341561036c57805f52600260205260405f209061016b82541515611fad565b61017b60ff600e84015416611fee565b6008820161018a34825461205f565b905560405160208101904382523360601b6040820152346054820152426074820152607481526101bb609482611cee565b51902091815f52600360205260405f206040516101d781611cd3565b338152346020820152426040820152436060820152846080820152815491600160401b831015610358578261021491600161021a95018155611f4f565b9061206c565b5f82815260076020908152604080832033845290915290205460ff16156102d7575b600701546001600160a01b031680610284575b506040519134835260208301527fc5b4df142a4930e9f5f4ae999caff9bc2eee2deb14046ac4bff24d1c730962ea60403393a3005b5f8080809334905af1610295612030565b50156102a1575f61024f565b60405162461bcd60e51b815260206004820152600e60248201526d199bdc9dd85c990819985a5b195960921b6044820152606490fd5b5f8281526007602090815260408083203384528252808320805460ff1916600117905584835260069091529020805490600160401b8210156103585760018201808255821015610344575f5260205f2001336bffffffffffffffffffffffff60a01b82541617905561023c565b634e487b7160e01b5f52603260045260245ffd5b634e487b7160e01b5f52604160045260245ffd5b60405162461bcd60e51b81526020600482015260146024820152730646f6e6174696f6e206d757374206265203e20360641b6044820152606490fd5b5f80fd5b346103a85760203660031901126103a857600435805f5260026020526103d760405f20541515611fad565b5f81815260086020908152604080832033845290915290205460ff16610459575f8181526008602090815260408083203384528252808320805460ff1916600117905583835260099091529020805461042f90611e5e565b905533907f6790e8ded18c25977540ba89bbcefd83da7fbe624085856758cf343178c4d6125f80a3005b60405162461bcd60e51b815260206004820152600d60248201526c185b1c9958591e481b1a5ad959609a1b6044820152606490fd5b346103a85760203660031901126103a8576004355f52600260205260405f2080546006820154600883015492600981015490600b810154916104da600260ff600e850154169301611d0f565b956104f960405197889788526101006020890152610100880190611daf565b946040870152606086015260808501528160a0850152151560c0840152421160e08301520390f35b346103a85760203660031901126103a8576004355f5260026020526020600b60405f2001544211604051908152f35b346103a85760203660031901126103a8576004355f526006602052602060405f2054604051908152f35b346103a85760603660031901126103a8576004356024356001600160401b0381116103a8576105ad903690600401611dd3565b91906044358015158091036103a857825f5260026020526105d360405f20541515611fad565b825f52600560205260405f2090604051916105ed83611cb8565b3383526105fb368786611e87565b602084019081526040840191428352606085019384528054600160401b8110156103585761062e91600182018155611f0c565b9490946107bd575184546001600160a01b0319166001600160a01b039190911617845551805160018501916001600160401b0382116103585761067b826106758554611c80565b85611ebd565b602090601f831160011461073057926106d6836106f597947fcc2d7dd2085ae6644799a42c0174adf9afc10a43f26db5eac3ddd1f96d1d64be9a9997946003975f92610725575b50508160011b915f199060031b1c19161790565b90555b51600284015551151591019060ff801983541691151516179055565b83604051916020835281602084015260408301375f604085830101526040813395601f80199101168101030190a3005b015190508d806106c2565b90601f19831691845f52815f20925f5b8181106107a55750937fcc2d7dd2085ae6644799a42c0174adf9afc10a43f26db5eac3ddd1f96d1d64be9998969360039693600193836106f59b981061078e575b505050811b0190556106d9565b01515f1983891b60f8161c191690558c8080610781565b92936020600181928786015181550195019301610740565b634e487b7160e01b5f525f60045260245ffd5b346103a85760203660031901126103a857600435335f52600a6020526107fc60ff60405f205416611e25565b805f52600260205260405f2061081481541515611fad565b600e8101805460ff81161561085e5760ff19169055600c42910155604051904282527fe120b15313f47b70c9196f36751e63aa50b67cf9316c6b5d695b4ad33ce2076f60203393a3005b60405162461bcd60e51b815260206004820152600e60248201526d185b1c9958591e4818db1bdcd95960921b6044820152606490fd5b346103a85760403660031901126103a8576004356108eb6108b3611e16565b335f52600a6020526108cb60ff60405f205416611e25565b825f526002602052600e60405f20019060ff801983541691151516179055565b5f52600260205242600c60405f2001555f80f35b346103a85760603660031901126103a85760043561091b611c54565b90604435335f52600a60205261093760ff60405f205416611e25565b815f52600260205260405f209061095082541515611fad565b8015610ad057804710610a9457604051602081019043825260018060a01b038616956bffffffffffffffffffffffff199060601b166040820152826054820152426074820152607481526109a5609482611cee565b519020915f80808085895af16109b9612030565b5015610a5d57600981016109ce83825461205f565b9055600c42910155825f52600460205260405f2090604051926109f084611cd3565b8584528160208501524260408501524360608501528060808501528254600160401b811015610358577f47a070fddc333f091b62fe7651c416dec4f2f79654dc9ee5412312d7b5eeae3294610214826040966001610a5095018155611f4f565b82519182526020820152a3005b60405162461bcd60e51b815260206004820152600f60248201526e1d1c985b9cd9995c8819985a5b1959608a1b6044820152606490fd5b60405162461bcd60e51b8152602060048201526014602482015273696e73756666696369656e742062616c616e636560601b6044820152606490fd5b60405162461bcd60e51b81526020600482015260126024820152710616d6f756e74206d757374206265203e20360741b6044820152606490fd5b346103a85760a0610b40610b3a610b2036611e00565b90610b29611f25565b505f52600460205260405f20611f4f565b50611f68565b610b7d60405180926080809160018060a01b0381511684526020810151602085015260408101516040850152606081015160608501520151910152565bf35b346103a8575f3660031901126103a8575f546040516001600160a01b039091168152602090f35b346103a85760a03660031901126103a8576004356024356001600160401b0381116103a857610bd9903690600401611dd3565b6044929192356001600160401b0381116103a857610bfb903690600401611dd3565b906064356001600160401b0381116103a857610c1b903690600401611dd3565b90916084356001600160401b0381116103a857610c3c903690600401611dd3565b949097335f52600a602052610c5760ff60405f205416611e25565b875f52600260205260405f2096610c7088541515611fad565b610c8060ff600e8a015416611fee565b60028801916001600160401b03821161035857610ca1826106758554611c80565b5f90601f8311600114610f5157610cce92915f9183610f465750508160011b915f199060031b1c19161790565b90555b60038601916001600160401b03821161035857610cf2826106758554611c80565b5f90601f8311600114610ee257610d1f92915f9183610ed75750508160011b915f199060031b1c19161790565b90555b60048401916001600160401b03821161035857610d43826106758554611c80565b5f90601f8311600114610e7357610d7092915f9183610e685750508160011b915f199060031b1c19161790565b90555b600d8201906001600160401b03811161035857610d9a81610d948454611c80565b84611ebd565b5f601f8211600114610e05578190610dc9939495965f92610dfa5750508160011b915f199060031b1c19161790565b90555b600c4291015533907fd665966ce5674a1d0a2c6f5dc9127cef98be3cdc2535f14fc0b1f36f0479839c5f80a3005b0135905086806106c2565b601f19821695835f5260205f20915f5b888110610e5057508360019596979810610e37575b505050811b019055610dcc565b01355f19600384901b60f8161c19169055858080610e2a565b90926020600181928686013581550194019101610e15565b0135905088806106c2565b601f19831691845f5260205f20925f5b818110610ebf5750908460019594939210610ea6575b505050811b019055610d73565b01355f19600384901b60f8161c19169055878080610e99565b91936020600181928787013581550195019201610e83565b013590508a806106c2565b601f19831691845f5260205f20925f5b818110610f2e5750908460019594939210610f15575b505050811b019055610d22565b01355f19600384901b60f8161c19169055898080610f08565b91936020600181928787013581550195019201610ef2565b013590508c806106c2565b601f19831691845f5260205f20925f5b818110610f9d5750908460019594939210610f84575b505050811b019055610cd1565b01355f19600384901b60f8161c191690558b8080610f77565b91936020600181928787013581550195019201610f61565b346103a8575f3660031901126103a8576020600154604051908152f35b346103a85760a0610b40610b3a610fe836611e00565b90610ff1611f25565b505f52600360205260405f20611f4f565b346103a85760203660031901126103a8576004355f81815260086020908152604080832033845290915290205460ff16156110aa575f8181526008602090815260408083203384528252808320805460ff191690558383526009909152902080548015611096575f1901905533907fcaadb8eaa8eea76230cccab7fb207c387f40489b1ce59b8dc6e51a5e584e3f585f80a3005b634e487b7160e01b5f52601160045260245ffd5b60405162461bcd60e51b81526020600482015260096024820152681b9bdd081b1a5ad95960ba1b6044820152606490fd5b346103a85760203660031901126103a8576004355f526003602052602060405f2054604051908152f35b346103a85760203660031901126103a8576004355f52600660205260405f20604051806020835491828152019081935f5260205f20905f5b81811061119e5750505081611153910382611cee565b604051918291602083019060208452518091526040830191905f5b81811061117c575050500390f35b82516001600160a01b031684528594506020938401939092019160010161116e565b82546001600160a01b031684526020909301926001928301920161113d565b346103a85760203660031901126103a8576004355f526005602052602060405f2054604051908152f35b346103a85760403660031901126103a857611200611c6a565b611208611e16565b5f546001600160a01b031633036112415761000e9160018060a01b03165f52600a60205260405f209060ff801983541691151516179055565b60405162461bcd60e51b815260206004820152600a60248201526937b7363c9037bbb732b960b11b6044820152606490fd5b346103a8576112b561128436611e00565b905f606060405161129481611cb8565b82815281602082015282604082015201525f52600560205260405f20611f0c565b506040516112c281611cb8565b81546001600160a01b031681526112db60018301611d0f565b916020820192835260ff60036002830154926040850193845201541660608301901515815261132e6040519485946020865260018060a01b039051166020860152516080604086015260a0850190611daf565b9151606084015251151560808301520390f35b346103a8576101003660031901126103a8576004356001600160401b0381116103a857611372903690600401611dd3565b906024356001600160401b0381116103a857611392903690600401611dd3565b906044356001600160401b0381116103a8576113b2903690600401611dd3565b91906064356001600160401b0381116103a8576113d3903690600401611dd3565b60a4356001600160a01b03811694929392908590036103a85760c4359360e4356001600160401b0381116103a85761140f903690600401611dd3565b949092335f52600a60205261142a60ff60405f205416611e25565b428711156119bb576001549a61143f8c611e5e565b6001556040519c6101e08e016001600160401b0381118f821017610358576040528c8e523360208f015261147591369190611e87565b9960408d019a8b52369061148892611e87565b9760608c01988952369061149b92611e87565b9260808b0193845236906114ae92611e87565b9260a08a0193845260c08a0194608435865260e08b019687526101008b015f90526101208b015f9052426101408c01526101608b0152426101808b015236906114f692611e87565b6101a089015260016101c089018181525f8981526002602081815260409092208c518155918c015193820180546001600160a01b0319166001600160a01b03959095169490941790935597518051919792890191906001600160401b03821161035857611567826106758554611c80565b602090601f83116001146119585761159592915f91836107255750508160011b915f199060031b1c19161790565b90555b51805160038801916001600160401b038211610358576115bc826106758554611c80565b602090601f83116001146118f5576115ea92915f91836118ea5750508160011b915f199060031b1c19161790565b90555b51805160048701916001600160401b03821161035857611611826106758554611c80565b602090601f83116001146118875761163f92915f918361187c5750508160011b915f199060031b1c19161790565b90555b51805160058601916001600160401b03821161035857611666826106758554611c80565b602090601f83116001146118195761169492915f91836117a45750508160011b915f199060031b1c19161790565b90555b516006840155516007830180546001600160a01b0319166001600160a01b039290921691909117905561010084015160088301556101208401516009830155610140840151600a830155610160840151600b830155610180840151600c8301556101a0909301518051909390600d8301906001600160401b03811161035857602095611727826106758554611c80565b8690601f83116001146117af5782611776969593600e959361175d935f926117a45750508160011b915f199060031b1c19161790565b90555b51151591019060ff801983541691151516179055565b6040519033817f633109eec20320eded000fc1e2634211aa7e92ba3f5b15faf6dcdafca05094e45f80a38152f35b015190508a806106c2565b90601f19831691845f52815f20925f5b8181106118025750926001928592611776999896600e9896106117ea575b505050811b019055611760565b01515f1960f88460031b161c191690558980806117dd565b92938a6001819287860151815501950193016117bf565b90601f19831691845f52815f20925f5b818110611864575090846001959493921061184c575b505050811b019055611697565b01515f1960f88460031b161c1916905589808061183f565b92936020600181928786015181550195019301611829565b015190508b806106c2565b90601f19831691845f52815f20925f5b8181106118d257509084600195949392106118ba575b505050811b019055611642565b01515f1960f88460031b161c191690558a80806118ad565b92936020600181928786015181550195019301611897565b015190508c806106c2565b90601f19831691845f52815f20925f5b8181106119405750908460019594939210611928575b505050811b0190556115ed565b01515f1960f88460031b161c191690558b808061191b565b92936020600181928786015181550195019301611905565b90601f19831691845f52815f20925f5b8181106119a3575090846001959493921061198b575b505050811b019055611598565b01515f1960f88460031b161c191690558c808061197e565b92936020600181928786015181550195019301611968565b60405162461bcd60e51b815260206004820152601a60248201527f656e642064617465206d75737420626520696e206675747572650000000000006044820152606490fd5b346103a85760203660031901126103a8576004355f526009602052602060405f2054604051908152f35b346103a85760203660031901126103a8576001600160a01b03611a4b611c6a565b165f52600a602052602060ff60405f2054166040519015158152f35b346103a85760203660031901126103a8576004355f5260026020526020600960405f200154604051908152f35b346103a85760203660031901126103a8576004355f52600260205260405f208054600160a01b600190036001830154169160028101611ad290611d0f565b90611adf60038201611d0f565b611aeb60048301611d0f565b90611af860058401611d0f565b91600684015492600160a01b600190036007860154166008860154600987015491600a88015493600b89015495600c8a015497600d8b01611b3890611d0f565b9a600e015460ff169b6040519e8f9e8f908152602001528d604081016101e090526101e001611b6691611daf565b8d810360608f0152611b7791611daf565b8c810360808e0152611b8891611daf565b8b810360a08d0152611b9991611daf565b9660c08b015260e08a01526101008901526101208801526101408701526101608601526101808501528381036101a0850152611bd491611daf565b9015156101c08301520390f35b346103a85760203660031901126103a8576004355f526004602052602060405f2054604051908152f35b346103a85760403660031901126103a857611c24611c54565b6004355f52600860205260405f209060018060a01b03165f52602052602060ff60405f2054166040519015158152f35b602435906001600160a01b03821682036103a857565b600435906001600160a01b03821682036103a857565b90600182811c92168015611cae575b6020831014611c9a57565b634e487b7160e01b5f52602260045260245ffd5b91607f1691611c8f565b608081019081106001600160401b0382111761035857604052565b60a081019081106001600160401b0382111761035857604052565b90601f801991011681019081106001600160401b0382111761035857604052565b9060405191825f825492611d2284611c80565b8084529360018116908115611d8d5750600114611d49575b50611d4792500383611cee565b565b90505f9291925260205f20905f915b818310611d71575050906020611d47928201015f611d3a565b6020919350806001915483858901015201910190918492611d58565b905060209250611d4794915060ff191682840152151560051b8201015f611d3a565b805180835260209291819084018484015e5f828201840152601f01601f1916010190565b9181601f840112156103a8578235916001600160401b0383116103a857602083818601950101116103a857565b60409060031901126103a8576004359060243590565b6024359081151582036103a857565b15611e2c57565b60405162461bcd60e51b815260206004820152600a60248201526937b7363c9030b236b4b760b11b6044820152606490fd5b5f1981146110965760010190565b6001600160401b03811161035857601f01601f191660200190565b929192611e9382611e6c565b91611ea16040519384611cee565b8294818452818301116103a8578281602093845f960137010152565b601f8211611eca57505050565b5f5260205f20906020601f840160051c83019310611f02575b601f0160051c01905b818110611ef7575050565b5f8155600101611eec565b9091508190611ee3565b8054821015610344575f5260205f209060021b01905f90565b60405190611f3282611cd3565b5f6080838281528260208201528260408201528260608201520152565b8054821015610344575f52600560205f20910201905f90565b90604051611f7581611cd3565b82546001600160a01b031681526001830154602082015260028301546040820152600383015460608201526004909201546080830152565b15611fb457565b60405162461bcd60e51b815260206004820152601260248201527118d85b5c185a59db881b9bdd08199bdd5b9960721b6044820152606490fd5b15611ff557565b60405162461bcd60e51b815260206004820152601360248201527263616d706169676e206e6f742061637469766560681b6044820152606490fd5b3d1561205a573d9061204182611e6c565b9161204f6040519384611cee565b82523d5f602084013e565b606090565b9190820180921161109657565b91906107bd57805182546001600160a01b0319166001600160a01b0391909116178255602081015160018301556040810151600283015560608101516003830155608001516004919091015556fea2646970667358221220b5fea98b975997b6f2a5db9e76da169e551db84ef640386b695e996f373a055164736f6c634300081c0033",
  "linkReferences": {},
  "deployedLinkReferences": {},
  "immutableReferences": {},
  "inputSourceName": "project/contracts/Charity.sol",
  "buildInfoId": "solc-0_8_28-4c05c8109297d1652ff296a33695fd820049df05"
}